:020000040800F2
:100000000050002079070008C1070008C107000858
:10001000C1070008C1070008C10700080000000070
:10002000000000000000000000000000C107000800
:10003000C107000800000000C1070008C107000850
:10004000C1070008C1070008C1070008C107000870
:10005000C1070008C1070008C1070008C107000860
:10006000C1070008C1070008C1070008C107000850
:10007000C1070008C1070008C1070008C107000840
:10008000C1070008C1070008C1070008C107000830
:10009000C1070008C1070008C1070008C107000820
:1000A000C1070008C1070008C1070008C107000810
:1000B000C1070008C1070008C1070008C107000800
:1000C000C1070008C1070008C1070008C1070008F0
:1000D000C1070008C1070008C1070008C1070008E0
:1000E000C1070008C1070008C107000800000000A0
:1000F0000000000000000000000000000000000000
:0C01000000000000000000005FF808F1A3
:10010C0010B5054C237833B9044B13B10448AFF345
:10011C0000800123237010BD440400200000000067
:10012C00C407000808B5034B1BB103490348AFF3E0
:10013C00008008BD0000000048040020C40700082F
:10014C0080B500AF00F04EF900F02AF900F034F958
:10015C00FCE7000080B500AF154B1B68144A43F058
:10016C0001031360124B5A681149124B13404B6038
:10017C000F4B1B680E4A23F0847323F480331360F7
:10018C000B4B1B680A4A23F480231360084B5B68F3
:10019C00074A23F4FE035360054B4FF41F029A6089
:1001AC0000F078F8044B4FF000629A6000BF80BDFD
:1001BC00001002400000FFF800ED00E080B485B0B4
:1001CC0000AF0023FB600023BB6000237B602C4B43
:1001DC005B6803F00C03FB60FB68042B07D0082B57
:1001EC0009D0002B33D1274B274A1A6033E0254B1B
:1001FC00254A1A602FE0224B5B6803F47013BB6036
:10020C001F4B5B6803F480337B60BB689B0C023331
:10021C00BB607B68002B06D1BB681C4A02FB03F356
:10022C00184A136017E0164B5B6803F40033002B7D
:10023C0006D0BB68154A02FB03F3124A13600AE0AE
:10024C00BB68114A02FB03F30E4A136003E00D4B2B
:10025C000D4A1A6000BF0A4B5B681B0903F00F03C1
:10026C000B4AD35CDBB2FB60064B1A68FB6822FAC4
:10027C0003F3044A136000BF1437BD4680BC7047BB
:10028C00001002400000002000127A0000093D001E
:10029C000400002080B500AF00F002F800BF80BD64
:1002AC0080B483B000AF00237B6000233B603A4BEB
:1002BC001B68394A43F480331360374B1B6803F4D3
:1002CC0000333B607B6801337B603B68002B03D1C0
:1002DC007B68B3F5A06FF0D12F4B1B6803F4003390
:1002EC00002B02D001233B6001E000233B603B6804
:1002FC00012B4BD1294B1B68284A43F01003136088
:10030C00264B1B68254A23F003031360234B1B6801
:10031C00224A43F0020313601F4B1F4A5B68536071
:10032C001D4B1D4A5B6853601B4B5B681A4A43F4B8
:10033C0080635360184B5B68174A23F47C1353603B
:10034C00154B5B68144A43F4E8135360124B1B685B
:10035C00114A43F08073136000BF0F4B1B6803F00E
:10036C000073002BF9D00C4B5B680B4A23F0030392
:10037C005360094B5B68084A43F00203536000BFAB
:10038C00054B5B6803F00C03082BF9D100BF0C374D
:10039C00BD4680BC704700BF0010024000200240E8
:1003AC0080B400AF034B4FF440125A6000BFBD46FF
:1003BC0080BC70470010014080B500AF084B4FF077
:1003CC0000521A614FF4FA7000F0F2F8044B4FF43B
:1003DC0000521A614FF4FA7000F0EAF800BF80BDC9
:1003EC000010014080B400AF044B9B69034A43F0FA
:1003FC001003936100BFBD4680BC704700100240E3
:10040C0080B400AF134B1B68124A43F00103136016
:10041C00104B5A680F49104B13404B600D4B1B6827
:10042C000C4A23F0847323F480331360094B1B684C
:10043C00084A23F480231360064B5B68054A23F4B7
:10044C00FE035360034B4FF41F029A6000BFBD467E
:10045C0080BC7047001002400000FFF880B483B0ED
:10046C0000AF00237B6000233B603A4B1B68394A8A
:10047C0043F480331360374B1B6803F400333B6049
:10048C007B6801337B603B68002B03D17B68B3F541
:10049C00A06FF0D12F4B1B6803F40033002B02D05C
:1004AC0001233B6001E000233B603B68012B4BD1F7
:1004BC00294B1B68284A43F010031360264B1B681A
:1004CC00254A23F003031360234B1B68224A43F095
:1004DC00020313601F4B1F4A5B6853601D4B1D4A80
:1004EC005B6853601B4B5B681A4A43F48063536030
:1004FC00184B5B68174A23F47C135360154B5B68ED
:10050C00144A43F4E8135360124B1B68114A43F02E
:10051C008073136000BF0F4B1B6803F00073002B3C
:10052C00F9D00C4B5B680B4A23F003035360094B67
:10053C005B68084A43F00203536000BF054B5B68DD
:10054C0003F00C03082BF9D100BF0C37BD4680BC5F
:10055C00704700BF001002400020024080B485B0FC
:10056C0000AF786011497A681346DB0013444B6086
:10057C000E4B00229A600D4B01221A600B4B1B682C
:10058C00FB60FB6803F00103002B04D0FB6803F451
:10059C008033002BF2D0054B00221A60034B002253
:1005AC009A6000BF1437BD4680BC704710E000E075
:1005BC0080B485B000AF7860124A7B6842F2283173
:1005CC0001FB03F353600F4B00229A600D4B012289
:1005DC001A600C4B1B68FB60FB6803F00103002BDB
:1005EC0004D0FB6803F48033002BF2D0054B0022BF
:1005FC001A60044B00229A6000BF1437BD4680BCC1
:10060C00704700BF10E000E070B50D4E0D4D761B2D
:10061C00B61006D00024013455F8043B9847A64286
:10062C00F9D1094E094D00F0C7F8761BB61006D06B
:10063C000024013455F8043B9847A642F9D170BD0B
:10064C00E0070008E0070008E8070008E0070008DA
:10065C00024B13B1024800F005B8704700000000CF
:10066C007D060008002301461A46184600F01EB805
:10067C0038B50A4C0A4D641BA4100AD004F180430F
:10068C00013B05EB8305013C55F804399847002CD8
:10069C00F9D1BDE8384000F095B800BFEC07000870
:1006AC00E8070008704700BF704700BF2DE9F8430A
:1006BC002B4D0646286898460F469146FFF7F2FFE9
:1006CC00284B1C68D4F84831002B3DD05A681F2A9F
:1006DC000DDC02F1010C16BB0232C3F804C0286811
:1006EC0043F82270FFF7E0FF0020BDE8F8831E4BB3
:1006FC007BB34FF4C870AFF30080034648B30020BF
:10070C00D4F848114FF0010CC3E900100246C4F8AC
:10071C004831C3F88801C3F88C01002EDCD00121CC
:10072C0003EB8204C4F88890D3F888019140084305
:10073C00022EC3F88801C4F80881CDD1D3F88C01FE
:10074C000143C3F88C11C7E704F5A673C4F848310C
:10075C00BCE72868FFF7A8FF4FF0FF30C5E700BFE4
:10076C0040040020DC07000800000000002103E02A
:10077C000B4B5B58435004310A480B4B42189A42BE
:10078C00F6D30A4A02E0002342F8043B084B9A4293
:10079C00F9D3FFF7DFFCFFF737FFFFF7D1FC70470A
:1007AC00EC07000800000020440400204404002052
:1007BC0084040020FEE70000F8B500BFF8BC08BCBC
:1007CC009E467047F8B500BFF8BC08BC9E46704703
:0407DC0018000020E1
:0807E0005D060008310100086C
:0407E8000D010008F7
:1007EC0000A24A0400000000000000000102030403
:1007FC0006070809000000000000000004030020A8
:10080C006C030020D4030020000000000000000056
:10081C0000000000000000000000000000000000CC
:10082C0000000000000000000000000000000000BC
:10083C0000000000000000000000000000000000AC
:10084C00000000000000000000000000000000009C
:10085C00000000000000000000000000000000008C
:10086C00000000000000000000000000000000007C
:10087C00000000000000000000000000000000006C
:10088C00000000000000000000000000000000005C
:10089C00000000000000000000000000000000004C
:1008AC0001000000000000000E33CDAB34126DE6E9
:1008BC00ECDE05000B000000000000000000000052
:1008CC00000000000000000000000000000000001C
:1008DC00000000000000000000000000000000000C
:1008EC0000000000000000000000000000000000FC
:1008FC0000000000000000000000000000000000EC
:040C2C006004002040
:04000005080007796F
:00000001FF
